{
  "contractName": "DappToken",
  "abi": [
    {
      "constant": true,
      "inputs": [],
      "name": "totalSupply",
      "outputs": [
        {
          "name": "",
          "type": "uint256"
        }
      ],
      "payable": false,
      "stateMutability": "view",
      "type": "function",
      "signature": "0x18160ddd"
    },
    {
      "constant": false,
      "inputs": [],
      "name": "Dapptoken",
      "outputs": [],
      "payable": false,
      "stateMutability": "nonpayable",
      "type": "function",
      "signature": "0xd81a63a4"
    }
  ],
  "bytecode": "0x608060405234801561001057600080fd5b5060c88061001f6000396000f3fe6080604052600436106049576000357c0100000000000000000000000000000000000000000000000000000000900463ffffffff16806318160ddd14604e578063d81a63a4146076575b600080fd5b348015605957600080fd5b506060608a565b6040518082815260200191505060405180910390f35b348015608157600080fd5b5060886090565b005b60005481565b620f424060008190555056fea165627a7a723058205aa4fb98d45c6835cdf15eae92b571156319779873f2c9ae78174565588ace850029",
  "source": "pragma solidity >=0.4.21 <0.6.0;\r\n\r\ncontract DappToken{\r\n\r\n\tuint256 public totalSupply;\r\n\r\n\t function Dapptoken() public {\r\n\t \t\r\n\t \ttotalSupply = 1000000;\r\n\t }\r\n}\r\n\r\n",
  "sourcePath": "C:/Users/Sam/token_sale/contracts/DappToken.sol",
  "compiler": {
    "name": "solc",
    "version": "0.5.0+commit.1d4f565a.Emscripten.clang"
  },
  "schemaVersion": "3.0.0",
  "updatedAt": "2019-01-07T16:04:01.609Z",
  "devdoc": {
    "methods": {}
  },
  "userdoc": {
    "methods": {}
  }
}